{
  "_format": "hh-sol-artifact-1",
  "contractName": "TicketBooking",
  "sourceName": "contracts/TicketBooking.sol",
  "abi": [
    {
      "inputs": [
        {
          "internalType": "address",
          "name": "_tixcoinAddress",
          "type": "address"
        }
      ],
      "stateMutability": "nonpayable",
      "type": "constructor"
    },
    {
      "inputs": [
        {
          "internalType": "address",
          "name": "sender",
          "type": "address"
        },
        {
          "internalType": "uint256",
          "name": "tokenId",
          "type": "uint256"
        },
        {
          "internalType": "address",
          "name": "owner",
          "type": "address"
        }
      ],
      "name": "ERC721IncorrectOwner",
      "type": "error"
    },
    {
      "inputs": [
        {
          "internalType": "address",
          "name": "operator",
          "type": "address"
        },
        {
          "internalType": "uint256",
          "name": "tokenId",
          "type": "uint256"
        }
      ],
      "name": "ERC721InsufficientApproval",
      "type": "error"
    },
    {
      "inputs": [
        {
          "internalType": "address",
          "name": "approver",
          "type": "address"
        }
      ],
      "name": "ERC721InvalidApprover",
      "type": "error"
    },
    {
      "inputs": [
        {
          "internalType": "address",
          "name": "operator",
          "type": "address"
        }
      ],
      "name": "ERC721InvalidOperator",
      "type": "error"
    },
    {
      "inputs": [
        {
          "internalType": "address",
          "name": "owner",
          "type": "address"
        }
      ],
      "name": "ERC721InvalidOwner",
      "type": "error"
    },
    {
      "inputs": [
        {
          "internalType": "address",
          "name": "receiver",
          "type": "address"
        }
      ],
      "name": "ERC721InvalidReceiver",
      "type": "error"
    },
    {
      "inputs": [
        {
          "internalType": "address",
          "name": "sender",
          "type": "address"
        }
      ],
      "name": "ERC721InvalidSender",
      "type": "error"
    },
    {
      "inputs": [
        {
          "internalType": "uint256",
          "name": "tokenId",
          "type": "uint256"
        }
      ],
      "name": "ERC721NonexistentToken",
      "type": "error"
    },
    {
      "anonymous": false,
      "inputs": [
        {
          "indexed": true,
          "internalType": "address",
          "name": "owner",
          "type": "address"
        },
        {
          "indexed": true,
          "internalType": "address",
          "name": "approved",
          "type": "address"
        },
        {
          "indexed": true,
          "internalType": "uint256",
          "name": "tokenId",
          "type": "uint256"
        }
      ],
      "name": "Approval",
      "type": "event"
    },
    {
      "anonymous": false,
      "inputs": [
        {
          "indexed": true,
          "internalType": "address",
          "name": "owner",
          "type": "address"
        },
        {
          "indexed": true,
          "internalType": "address",
          "name": "operator",
          "type": "address"
        },
        {
          "indexed": false,
          "internalType": "bool",
          "name": "approved",
          "type": "bool"
        }
      ],
      "name": "ApprovalForAll",
      "type": "event"
    },
    {
      "anonymous": false,
      "inputs": [
        {
          "indexed": true,
          "internalType": "address",
          "name": "from",
          "type": "address"
        },
        {
          "indexed": true,
          "internalType": "address",
          "name": "to",
          "type": "address"
        },
        {
          "indexed": true,
          "internalType": "uint256",
          "name": "tokenId",
          "type": "uint256"
        }
      ],
      "name": "Transfer",
      "type": "event"
    },
    {
      "inputs": [
        {
          "internalType": "address",
          "name": "to",
          "type": "address"
        },
        {
          "internalType": "uint256",
          "name": "tokenId",
          "type": "uint256"
        }
      ],
      "name": "approve",
      "outputs": [],
      "stateMutability": "nonpayable",
      "type": "function"
    },
    {
      "inputs": [
        {
          "internalType": "address",
          "name": "owner",
          "type": "address"
        }
      ],
      "name": "balanceOf",
      "outputs": [
        {
          "internalType": "uint256",
          "name": "",
          "type": "uint256"
        }
      ],
      "stateMutability": "view",
      "type": "function"
    },
    {
      "inputs": [
        {
          "internalType": "uint256",
          "name": "_eventId",
          "type": "uint256"
        }
      ],
      "name": "bookTicket",
      "outputs": [],
      "stateMutability": "nonpayable",
      "type": "function"
    },
    {
      "inputs": [
        {
          "internalType": "uint256",
          "name": "_ticketId",
          "type": "uint256"
        }
      ],
      "name": "cancelBooking",
      "outputs": [],
      "stateMutability": "nonpayable",
      "type": "function"
    },
    {
      "inputs": [
        {
          "internalType": "string",
          "name": "_name",
          "type": "string"
        },
        {
          "internalType": "uint256",
          "name": "_date",
          "type": "uint256"
        },
        {
          "internalType": "uint256",
          "name": "_price",
          "type": "uint256"
        },
        {
          "internalType": "uint256",
          "name": "_totalTickets",
          "type": "uint256"
        },
        {
          "internalType": "uint256",
          "name": "_refundDeadline",
          "type": "uint256"
        }
      ],
      "name": "createEvent",
      "outputs": [],
      "stateMutability": "nonpayable",
      "type": "function"
    },
    {
      "inputs": [],
      "name": "eventIdCounter",
      "outputs": [
        {
          "internalType": "uint256",
          "name": "",
          "type": "uint256"
        }
      ],
      "stateMutability": "view",
      "type": "function"
    },
    {
      "inputs": [
        {
          "internalType": "uint256",
          "name": "",
          "type": "uint256"
        }
      ],
      "name": "events",
      "outputs": [
        {
          "internalType": "string",
          "name": "name",
          "type": "string"
        },
        {
          "internalType": "uint256",
          "name": "date",
          "type": "uint256"
        },
        {
          "internalType": "uint256",
          "name": "price",
          "type": "uint256"
        },
        {
          "internalType": "uint256",
          "name": "totalTickets",
          "type": "uint256"
        },
        {
          "internalType": "uint256",
          "name": "soldTickets",
          "type": "uint256"
        },
        {
          "internalType": "uint256",
          "name": "refundDeadline",
          "type": "uint256"
        }
      ],
      "stateMutability": "view",
      "type": "function"
    },
    {
      "inputs": [
        {
          "internalType": "uint256",
          "name": "tokenId",
          "type": "uint256"
        }
      ],
      "name": "getApproved",
      "outputs": [
        {
          "internalType": "address",
          "name": "",
          "type": "address"
        }
      ],
      "stateMutability": "view",
      "type": "function"
    },
    {
      "inputs": [
        {
          "internalType": "uint256",
          "name": "_eventId",
          "type": "uint256"
        }
      ],
      "name": "getEventDetails",
      "outputs": [
        {
          "components": [
            {
              "internalType": "string",
              "name": "name",
              "type": "string"
            },
            {
              "internalType": "uint256",
              "name": "date",
              "type": "uint256"
            },
            {
              "internalType": "uint256",
              "name": "price",
              "type": "uint256"
            },
            {
              "internalType": "uint256",
              "name": "totalTickets",
              "type": "uint256"
            },
            {
              "internalType": "uint256",
              "name": "soldTickets",
              "type": "uint256"
            },
            {
              "internalType": "uint256",
              "name": "refundDeadline",
              "type": "uint256"
            }
          ],
          "internalType": "struct TicketBooking.Event",
          "name": "",
          "type": "tuple"
        }
      ],
      "stateMutability": "view",
      "type": "function"
    },
    {
      "inputs": [
        {
          "internalType": "address",
          "name": "_user",
          "type": "address"
        }
      ],
      "name": "getUserTickets",
      "outputs": [
        {
          "internalType": "uint256[]",
          "name": "",
          "type": "uint256[]"
        }
      ],
      "stateMutability": "view",
      "type": "function"
    },
    {
      "inputs": [
        {
          "internalType": "address",
          "name": "owner",
          "type": "address"
        },
        {
          "internalType": "address",
          "name": "operator",
          "type": "address"
        }
      ],
      "name": "isApprovedForAll",
      "outputs": [
        {
          "internalType": "bool",
          "name": "",
          "type": "bool"
        }
      ],
      "stateMutability": "view",
      "type": "function"
    },
    {
      "inputs": [],
      "name": "name",
      "outputs": [
        {
          "internalType": "string",
          "name": "",
          "type": "string"
        }
      ],
      "stateMutability": "view",
      "type": "function"
    },
    {
      "inputs": [],
      "name": "owner",
      "outputs": [
        {
          "internalType": "address",
          "name": "",
          "type": "address"
        }
      ],
      "stateMutability": "view",
      "type": "function"
    },
    {
      "inputs": [
        {
          "internalType": "address",
          "name": "",
          "type": "address"
        },
        {
          "internalType": "uint256",
          "name": "",
          "type": "uint256"
        }
      ],
      "name": "ownerBookings",
      "outputs": [
        {
          "internalType": "uint256",
          "name": "",
          "type": "uint256"
        }
      ],
      "stateMutability": "view",
      "type": "function"
    },
    {
      "inputs": [
        {
          "internalType": "uint256",
          "name": "tokenId",
          "type": "uint256"
        }
      ],
      "name": "ownerOf",
      "outputs": [
        {
          "internalType": "address",
          "name": "",
          "type": "address"
        }
      ],
      "stateMutability": "view",
      "type": "function"
    },
    {
      "inputs": [
        {
          "internalType": "address",
          "name": "from",
          "type": "address"
        },
        {
          "internalType": "address",
          "name": "to",
          "type": "address"
        },
        {
          "internalType": "uint256",
          "name": "tokenId",
          "type": "uint256"
        }
      ],
      "name": "safeTransferFrom",
      "outputs": [],
      "stateMutability": "nonpayable",
      "type": "function"
    },
    {
      "inputs": [
        {
          "internalType": "address",
          "name": "from",
          "type": "address"
        },
        {
          "internalType": "address",
          "name": "to",
          "type": "address"
        },
        {
          "internalType": "uint256",
          "name": "tokenId",
          "type": "uint256"
        },
        {
          "internalType": "bytes",
          "name": "data",
          "type": "bytes"
        }
      ],
      "name": "safeTransferFrom",
      "outputs": [],
      "stateMutability": "nonpayable",
      "type": "function"
    },
    {
      "inputs": [
        {
          "internalType": "address",
          "name": "operator",
          "type": "address"
        },
        {
          "internalType": "bool",
          "name": "approved",
          "type": "bool"
        }
      ],
      "name": "setApprovalForAll",
      "outputs": [],
      "stateMutability": "nonpayable",
      "type": "function"
    },
    {
      "inputs": [
        {
          "internalType": "bytes4",
          "name": "interfaceId",
          "type": "bytes4"
        }
      ],
      "name": "supportsInterface",
      "outputs": [
        {
          "internalType": "bool",
          "name": "",
          "type": "bool"
        }
      ],
      "stateMutability": "view",
      "type": "function"
    },
    {
      "inputs": [],
      "name": "symbol",
      "outputs": [
        {
          "internalType": "string",
          "name": "",
          "type": "string"
        }
      ],
      "stateMutability": "view",
      "type": "function"
    },
    {
      "inputs": [],
      "name": "ticketIdCounter",
      "outputs": [
        {
          "internalType": "uint256",
          "name": "",
          "type": "uint256"
        }
      ],
      "stateMutability": "view",
      "type": "function"
    },
    {
      "inputs": [
        {
          "internalType": "uint256",
          "name": "",
          "type": "uint256"
        }
      ],
      "name": "tickets",
      "outputs": [
        {
          "internalType": "uint256",
          "name": "eventId",
          "type": "uint256"
        },
        {
          "internalType": "address",
          "name": "owner",
          "type": "address"
        },
        {
          "internalType": "bool",
          "name": "isCancelled",
          "type": "bool"
        }
      ],
      "stateMutability": "view",
      "type": "function"
    },
    {
      "inputs": [],
      "name": "tixcoin",
      "outputs": [
        {
          "internalType": "contract IERC20",
          "name": "",
          "type": "address"
        }
      ],
      "stateMutability": "view",
      "type": "function"
    },
    {
      "inputs": [
        {
          "internalType": "uint256",
          "name": "tokenId",
          "type": "uint256"
        }
      ],
      "name": "tokenURI",
      "outputs": [
        {
          "internalType": "string",
          "name": "",
          "type": "string"
        }
      ],
      "stateMutability": "view",
      "type": "function"
    },
    {
      "inputs": [
        {
          "internalType": "address",
          "name": "from",
          "type": "address"
        },
        {
          "internalType": "address",
          "name": "to",
          "type": "address"
        },
        {
          "internalType": "uint256",
          "name": "tokenId",
          "type": "uint256"
        }
      ],
      "name": "transferFrom",
      "outputs": [],
      "stateMutability": "nonpayable",
      "type": "function"
    },
    {
      "inputs": [],
      "name": "withdrawFunds",
      "outputs": [],
      "stateMutability": "nonpayable",
      "type": "function"
    }
  ],
  "bytecode": "0x60c06040523480156200001157600080fd5b5060405162003e0538038062003e058339818101604052810190620000379190620001a2565b6040518060400160405280600b81526020017f4576656e745469636b65740000000000000000000000000000000000000000008152506040518060400160405280600381526020017f45565400000000000000000000000000000000000000000000000000000000008152508160009081620000b491906200044e565b508060019081620000c691906200044e565b5050503373ffffffffffffffffffffffffffffffffffffffff1660808173ffffffffffffffffffffffffffffffffffffffff16815250508073ffffffffffffffffffffffffffffffffffffffff1660a08173ffffffffffffffffffffffffffffffffffffffff16815250505062000535565b600080fd5b600073ffffffffffffffffffffffffffffffffffffffff82169050919050565b60006200016a826200013d565b9050919050565b6200017c816200015d565b81146200018857600080fd5b50565b6000815190506200019c8162000171565b92915050565b600060208284031215620001bb57620001ba62000138565b5b6000620001cb848285016200018b565b91505092915050565b600081519050919050565b7f4e487b7100000000000000000000000000000000000000000000000000000000600052604160045260246000fd5b7f4e487b7100000000000000000000000000000000000000000000000000000000600052602260045260246000fd5b600060028204905060018216806200025657607f821691505b6020821081036200026c576200026b6200020e565b5b50919050565b60008190508160005260206000209050919050565b60006020601f8301049050919050565b600082821b905092915050565b600060088302620002d67fffffffffffffffffffffffffffffffffffffffffffffffffffffffffffffffff8262000297565b620002e2868362000297565b95508019841693508086168417925050509392505050565b6000819050919050565b6000819050919050565b60006200032f620003296200032384620002fa565b62000304565b620002fa565b9050919050565b6000819050919050565b6200034b836200030e565b620003636200035a8262000336565b848454620002a4565b825550505050565b600090565b6200037a6200036b565b6200038781848462000340565b505050565b5b81811015620003af57620003a360008262000370565b6001810190506200038d565b5050565b601f821115620003fe57620003c88162000272565b620003d38462000287565b81016020851015620003e3578190505b620003fb620003f28562000287565b8301826200038c565b50505b505050565b600082821c905092915050565b6000620004236000198460080262000403565b1980831691505092915050565b60006200043e838362000410565b9150826002028217905092915050565b6200045982620001d4565b67ffffffffffffffff811115620004755762000474620001df565b5b6200048182546200023d565b6200048e828285620003b3565b600060209050601f831160018114620004c65760008415620004b1578287015190505b620004bd858262000430565b8655506200052d565b601f198416620004d68662000272565b60005b828110156200050057848901518255600182019150602085019450602081019050620004d9565b868310156200052057848901516200051c601f89168262000410565b8355505b6001600288020188555050505b505050505050565b60805160a0516138796200058c600039600081816109ad01528181610b2d01528181610f0d01528181610fec015261121b015260008181610e7d01528181611028015281816111f7015261137501526138796000f3fe608060405234801561001057600080fd5b506004361061018e5760003560e01c80636352211e116100de578063a22cb46511610097578063dbf3f3c911610071578063dbf3f3c9146104ae578063e01a0ebe146104ca578063e985e9c5146104e8578063ec38d5a0146105185761018e565b8063a22cb46514610446578063b88d4fde14610462578063c87b56dd1461047e5761018e565b80636352211e1461036e57806370a082311461039e5780638802255f146103ce5780638da5cb5b146103ec5780638ead88f41461040a57806395d89b41146104285761018e565b80630b7914301161014b57806323b872dd1161012557806323b872dd146102fa57806324600fc31461031657806342842e0e1461032057806350b447121461033c5761018e565b80630b7914301461028d5780630dca825e146102c25780631c91a65e146102de5761018e565b806301ffc9a7146101935780630484a22f146101c357806306fdde03146101f357806308001efe14610211578063081812fc14610241578063095ea7b314610271575b600080fd5b6101ad60048036038101906101a8919061256a565b610548565b6040516101ba91906125b2565b60405180910390f35b6101dd60048036038101906101d8919061262b565b61062a565b6040516101ea9190612720565b60405180910390f35b6101fb6106c1565b60405161020891906127d2565b60405180910390f35b61022b60048036038101906102269190612820565b610753565b604051610238919061286f565b60405180910390f35b61025b6004803603810190610256919061288a565b610784565b60405161026891906128c6565b60405180910390f35b61028b60048036038101906102869190612820565b6107a0565b005b6102a760048036038101906102a2919061288a565b6107b6565b6040516102b9969594939291906128e1565b60405180910390f35b6102dc60048036038101906102d7919061288a565b61087a565b005b6102f860048036038101906102f3919061288a565b610a77565b005b610314600480360381019061030f9190612949565b610d79565b005b61031e610e7b565b005b61033a60048036038101906103359190612949565b6110ac565b005b6103566004803603810190610351919061288a565b6110cc565b6040516103659392919061299c565b60405180910390f35b6103886004803603810190610383919061288a565b611123565b60405161039591906128c6565b60405180910390f35b6103b860048036038101906103b3919061262b565b611135565b6040516103c5919061286f565b60405180910390f35b6103d66111ef565b6040516103e3919061286f565b60405180910390f35b6103f46111f5565b60405161040191906128c6565b60405180910390f35b610412611219565b60405161041f9190612a32565b60405180910390f35b61043061123d565b60405161043d91906127d2565b60405180910390f35b610460600480360381019061045b9190612a79565b6112cf565b005b61047c60048036038101906104779190612bee565b6112e5565b005b6104986004803603810190610493919061288a565b61130a565b6040516104a591906127d2565b60405180910390f35b6104c860048036038101906104c39190612d12565b611373565b005b6104d26114ae565b6040516104df919061286f565b60405180910390f35b61050260048036038101906104fd9190612da9565b6114b4565b60405161050f91906125b2565b60405180910390f35b610532600480360381019061052d919061288a565b611548565b60405161053f9190612ebc565b60405180910390f35b60007f80ac58cd000000000000000000000000000000000000000000000000000000007bffffffffffffffffffffffffffffffffffffffffffffffffffffffff1916827bffffffffffffffffffffffffffffffffffffffffffffffffffffffff1916148061061357507f5b5e139f000000000000000000000000000000000000000000000000000000007bffffffffffffffffffffffffffffffffffffffffffffffffffffffff1916827bffffffffffffffffffffffffffffffffffffffffffffffffffffffff1916145b80610623575061062282611639565b5b9050919050565b6060600a60008373ffffffffffffffffffffffffffffffffffffffff1673ffffffffffffffffffffffffffffffffffffffff1681526020019081526020016000208054806020026020016040519081016040528092919081815260200182805480156106b557602002820191906000526020600020905b8154815260200190600101908083116106a1575b50505050509050919050565b6060600080546106d090612f0d565b80601f01602080910402602001604051908101604052809291908181526020018280546106fc90612f0d565b80156107495780601f1061071e57610100808354040283529160200191610749565b820191906000526020600020905b81548152906001019060200180831161072c57829003601f168201915b5050505050905090565b600a602052816000526040600020818154811061076f57600080fd5b90600052602060002001600091509150505481565b600061078f826116a3565b506107998261172b565b9050919050565b6107b282826107ad611768565b611770565b5050565b60086020528060005260406000206000915090508060000180546107d990612f0d565b80601f016020809104026020016040519081016040528092919081815260200182805461080590612f0d565b80156108525780601f1061082757610100808354040283529160200191610852565b820191906000526020600020905b81548152906001019060200180831161083557829003601f168201915b5050505050908060010154908060020154908060030154908060040154908060050154905086565b3373ffffffffffffffffffffffffffffffffffffffff1661089a82611782565b73ffffffffffffffffffffffffffffffffffffffff16146108f0576040517f08c379a00000000000000000000000000000000000000000000000000000000081526004016108e790612f8a565b60405180910390fd5b60006009600083815260200190815260200160002090508060010160149054906101000a900460ff1615610959576040517f08c379a000000000000000000000000000000000000000000000000000000000815260040161095090612ff6565b60405180910390fd5b6000600860008360000154815260200190815260200160002090506000816005015442101561098e57816002015490506109a2565b6002826002015461099f9190613074565b90505b6000811115610a4b577f000000000000000000000000000000000000000000000000000000000000000073ffffffffffffffffffffffffffffffffffffffff1663a9059cbb33836040518363ffffffff1660e01b8152600401610a069291906130a5565b6020604051808303816000875af1158015610a25573d6000803e3d6000fd5b505050506040513d601f19601f82011682018060405250810190610a4991906130e3565b505b60018360010160146101000a81548160ff021916908315150217905550610a718461180e565b50505050565b6000600860008381526020019081526020016000209050600082118015610aa057506006548211155b610adf576040517f08c379a0000000000000000000000000000000000000000000000000000000008152600401610ad69061315c565b60405180910390fd5b8060030154816004015410610b29576040517f08c379a0000000000000000000000000000000000000000000000000000000008152600401610b20906131c8565b60405180910390fd5b60007f000000000000000000000000000000000000000000000000000000000000000073ffffffffffffffffffffffffffffffffffffffff166323b872dd333085600201546040518463ffffffff1660e01b8152600401610b8c939291906131e8565b6020604051808303816000875af1158015610bab573d6000803e3d6000fd5b505050506040513d601f19601f82011682018060405250810190610bcf91906130e3565b905080610c11576040517f08c379a0000000000000000000000000000000000000000000000000000000008152600401610c089061326b565b60405180910390fd5b816004016000815480929190610c269061328b565b919050555060076000815480929190610c3e9061328b565b919050555060405180606001604052808481526020013373ffffffffffffffffffffffffffffffffffffffff168152602001600015158152506009600060075481526020019081526020016000206000820151816000015560208201518160010160006101000a81548173ffffffffffffffffffffffffffffffffffffffff021916908373ffffffffffffffffffffffffffffffffffffffff16021790555060408201518160010160146101000a81548160ff021916908315150217905550905050600a60003373ffffffffffffffffffffffffffffffffffffffff1673ffffffffffffffffffffffffffffffffffffffff1681526020019081526020016000206007549080600181540180825580915050600190039060005260206000200160009091909190915055610d7433600754611894565b505050565b600073ffffffffffffffffffffffffffffffffffffffff168273ffffffffffffffffffffffffffffffffffffffff1603610deb5760006040517f64a0ae92000000000000000000000000000000000000000000000000000000008152600401610de291906128c6565b60405180910390fd5b6000610dff8383610dfa611768565b6118b2565b90508373ffffffffffffffffffffffffffffffffffffffff168173ffffffffffffffffffffffffffffffffffffffff1614610e75578382826040517f64283d7b000000000000000000000000000000000000000000000000000000008152600401610e6c939291906132d3565b60405180910390fd5b50505050565b7f000000000000000000000000000000000000000000000000000000000000000073ffffffffffffffffffffffffffffffffffffffff163373ffffffffffffffffffffffffffffffffffffffff1614610f09576040517f08c379a0000000000000000000000000000000000000000000000000000000008152600401610f009061337c565b60405180910390fd5b60007f000000000000000000000000000000000000000000000000000000000000000073ffffffffffffffffffffffffffffffffffffffff166370a08231306040518263ffffffff1660e01b8152600401610f6491906128c6565b602060405180830381865afa158015610f81573d6000803e3d6000fd5b505050506040513d601f19601f82011682018060405250810190610fa591906133b1565b905060008111610fea576040517f08c379a0000000000000000000000000000000000000000000000000000000008152600401610fe19061342a565b60405180910390fd5b7f000000000000000000000000000000000000000000000000000000000000000073ffffffffffffffffffffffffffffffffffffffff1663a9059cbb7f0000000000000000000000000000000000000000000000000000000000000000836040518363ffffffff1660e01b81526004016110659291906130a5565b6020604051808303816000875af1158015611084573d6000803e3d6000fd5b505050506040513d601f19601f820116820180604052508101906110a891906130e3565b5050565b6110c7838383604051806020016040528060008152506112e5565b505050565b60096020528060005260406000206000915090508060000154908060010160009054906101000a900473ffffffffffffffffffffffffffffffffffffffff16908060010160149054906101000a900460ff16905083565b600061112e826116a3565b9050919050565b60008073ffffffffffffffffffffffffffffffffffffffff168273ffffffffffffffffffffffffffffffffffffffff16036111a85760006040517f89c62b6400000000000000000000000000000000000000000000000000000000815260040161119f91906128c6565b60405180910390fd5b600360008373ffffffffffffffffffffffffffffffffffffffff1673ffffffffffffffffffffffffffffffffffffffff168152602001908152602001600020549050919050565b60075481565b7f000000000000000000000000000000000000000000000000000000000000000081565b7f000000000000000000000000000000000000000000000000000000000000000081565b60606001805461124c90612f0d565b80601f016020809104026020016040519081016040528092919081815260200182805461127890612f0d565b80156112c55780601f1061129a576101008083540402835291602001916112c5565b820191906000526020600020905b8154815290600101906020018083116112a857829003601f168201915b5050505050905090565b6112e16112da611768565b8383611acc565b5050565b6112f0848484610d79565b6113046112fb611768565b85858585611c3b565b50505050565b6060611315826116a3565b506000611320611dec565b90506000815111611340576040518060200160405280600081525061136b565b8061134a84611e03565b60405160200161135b929190613486565b6040516020818303038152906040525b915050919050565b7f000000000000000000000000000000000000000000000000000000000000000073ffffffffffffffffffffffffffffffffffffffff163373ffffffffffffffffffffffffffffffffffffffff1614611401576040517f08c379a00000000000000000000000000000000000000000000000000000000081526004016113f89061337c565b60405180910390fd5b600660008154809291906114149061328b565b91905055506040518060c0016040528086815260200185815260200184815260200183815260200160008152602001828152506008600060065481526020019081526020016000206000820151816000019081611471919061364c565b506020820151816001015560408201518160020155606082015181600301556080820151816004015560a082015181600501559050505050505050565b60065481565b6000600560008473ffffffffffffffffffffffffffffffffffffffff1673ffffffffffffffffffffffffffffffffffffffff16815260200190815260200160002060008373ffffffffffffffffffffffffffffffffffffffff1673ffffffffffffffffffffffffffffffffffffffff16815260200190815260200160002060009054906101000a900460ff16905092915050565b6115506124c8565b600860008381526020019081526020016000206040518060c001604052908160008201805461157e90612f0d565b80601f01602080910402602001604051908101604052809291908181526020018280546115aa90612f0d565b80156115f75780601f106115cc576101008083540402835291602001916115f7565b820191906000526020600020905b8154815290600101906020018083116115da57829003601f168201915b50505050508152602001600182015481526020016002820154815260200160038201548152602001600482015481526020016005820154815250509050919050565b60007f01ffc9a7000000000000000000000000000000000000000000000000000000007bffffffffffffffffffffffffffffffffffffffffffffffffffffffff1916827bffffffffffffffffffffffffffffffffffffffffffffffffffffffff1916149050919050565b6000806116af83611ed1565b9050600073ffffffffffffffffffffffffffffffffffffffff168173ffffffffffffffffffffffffffffffffffffffff160361172257826040517f7e273289000000000000000000000000000000000000000000000000000000008152600401611719919061286f565b60405180910390fd5b80915050919050565b60006004600083815260200190815260200160002060009054906101000a900473ffffffffffffffffffffffffffffffffffffffff169050919050565b600033905090565b61177d8383836001611f0e565b505050565b60003073ffffffffffffffffffffffffffffffffffffffff16636352211e836040518263ffffffff1660e01b81526004016117bd919061286f565b602060405180830381865afa9250505080156117f757506040513d601f19601f820116820180604052508101906117f49190613733565b60015b6118045760009050611809565b809150505b919050565b600061181d60008360006118b2565b9050600073ffffffffffffffffffffffffffffffffffffffff168173ffffffffffffffffffffffffffffffffffffffff160361189057816040517f7e273289000000000000000000000000000000000000000000000000000000008152600401611887919061286f565b60405180910390fd5b5050565b6118ae8282604051806020016040528060008152506120d3565b5050565b6000806118be84611ed1565b9050600073ffffffffffffffffffffffffffffffffffffffff168373ffffffffffffffffffffffffffffffffffffffff1614611900576118ff8184866120f7565b5b600073ffffffffffffffffffffffffffffffffffffffff168173ffffffffffffffffffffffffffffffffffffffff161461199157611942600085600080611f0e565b6001600360008373ffffffffffffffffffffffffffffffffffffffff1673ffffffffffffffffffffffffffffffffffffffff168152602001908152602001600020600082825403925050819055505b600073ffffffffffffffffffffffffffffffffffffffff168573ffffffffffffffffffffffffffffffffffffffff1614611a14576001600360008773ffffffffffffffffffffffffffffffffffffffff1673ffffffffffffffffffffffffffffffffffffffff168152602001908152602001600020600082825401925050819055505b846002600086815260200190815260200160002060006101000a81548173ffffffffffffffffffffffffffffffffffffffff021916908373ffffffffffffffffffffffffffffffffffffffff160217905550838573ffffffffffffffffffffffffffffffffffffffff168273ffffffffffffffffffffffffffffffffffffffff167fddf252ad1be2c89b69c2b068fc378daa952ba7f163c4a11628f55a4df523b3ef60405160405180910390a4809150509392505050565b600073ffffffffffffffffffffffffffffffffffffffff168273ffffffffffffffffffffffffffffffffffffffff1603611b3d57816040517f5b08ba18000000000000000000000000000000000000000000000000000000008152600401611b3491906128c6565b60405180910390fd5b80600560008573ffffffffffffffffffffffffffffffffffffffff1673ffffffffffffffffffffffffffffffffffffffff16815260200190815260200160002060008473ffffffffffffffffffffffffffffffffffffffff1673ffffffffffffffffffffffffffffffffffffffff16815260200190815260200160002060006101000a81548160ff0219169083151502179055508173ffffffffffffffffffffffffffffffffffffffff168373ffffffffffffffffffffffffffffffffffffffff167f17307eab39ab6107e8899845ad3d59bd9653f200f220920489ca2b5937696c3183604051611c2e91906125b2565b60405180910390a3505050565b60008373ffffffffffffffffffffffffffffffffffffffff163b1115611de5578273ffffffffffffffffffffffffffffffffffffffff1663150b7a02868685856040518563ffffffff1660e01b8152600401611c9a94939291906137b5565b6020604051808303816000875af1925050508015611cd657506040513d601f19601f82011682018060405250810190611cd39190613816565b60015b611d5a573d8060008114611d06576040519150601f19603f3d011682016040523d82523d6000602084013e611d0b565b606091505b506000815103611d5257836040517f64a0ae92000000000000000000000000000000000000000000000000000000008152600401611d4991906128c6565b60405180910390fd5b805160208201fd5b63150b7a0260e01b7bffffffffffffffffffffffffffffffffffffffffffffffffffffffff1916817bffffffffffffffffffffffffffffffffffffffffffffffffffffffff191614611de357836040517f64a0ae92000000000000000000000000000000000000000000000000000000008152600401611dda91906128c6565b60405180910390fd5b505b5050505050565b606060405180602001604052806000815250905090565b606060006001611e12846121bb565b01905060008167ffffffffffffffff811115611e3157611e30612ac3565b5b6040519080825280601f01601f191660200182016040528015611e635781602001600182028036833780820191505090505b509050600082602083010190505b600115611ec6578080600190039150507f3031323334353637383961626364656600000000000000000000000000000000600a86061a8153600a8581611eba57611eb9613016565b5b04945060008503611e71575b819350505050919050565b60006002600083815260200190815260200160002060009054906101000a900473ffffffffffffffffffffffffffffffffffffffff169050919050565b8080611f475750600073ffffffffffffffffffffffffffffffffffffffff168273ffffffffffffffffffffffffffffffffffffffff1614155b1561207b576000611f57846116a3565b9050600073ffffffffffffffffffffffffffffffffffffffff168373ffffffffffffffffffffffffffffffffffffffff1614158015611fc257508273ffffffffffffffffffffffffffffffffffffffff168173ffffffffffffffffffffffffffffffffffffffff1614155b8015611fd55750611fd381846114b4565b155b1561201757826040517fa9fbf51f00000000000000000000000000000000000000000000000000000000815260040161200e91906128c6565b60405180910390fd5b811561207957838573ffffffffffffffffffffffffffffffffffffffff168273ffffffffffffffffffffffffffffffffffffffff167f8c5be1e5ebec7d5bd14f71427d1e84f3dd0314c0f7b2291e5b200ac8c7c3b92560405160405180910390a45b505b836004600085815260200190815260200160002060006101000a81548173ffffffffffffffffffffffffffffffffffffffff021916908373ffffffffffffffffffffffffffffffffffffffff16021790555050505050565b6120dd838361230e565b6120f26120e8611768565b6000858585611c3b565b505050565b612102838383612407565b6121b657600073ffffffffffffffffffffffffffffffffffffffff168373ffffffffffffffffffffffffffffffffffffffff160361217757806040517f7e27328900000000000000000000000000000000000000000000000000000000815260040161216e919061286f565b60405180910390fd5b81816040517f177e802f0000000000000000000000000000000000000000000000000000000081526004016121ad9291906130a5565b60405180910390fd5b505050565b600080600090507a184f03e93ff9f4daa797ed6e38ed64bf6a1f0100000000000000008310612219577a184f03e93ff9f4daa797ed6e38ed64bf6a1f010000000000000000838161220f5761220e613016565b5b0492506040810190505b6d04ee2d6d415b85acef81000000008310612256576d04ee2d6d415b85acef8100000000838161224c5761224b613016565b5b0492506020810190505b662386f26fc10000831061228557662386f26fc10000838161227b5761227a613016565b5b0492506010810190505b6305f5e10083106122ae576305f5e10083816122a4576122a3613016565b5b0492506008810190505b61271083106122d35761271083816122c9576122c8613016565b5b0492506004810190505b606483106122f657606483816122ec576122eb613016565b5b0492506002810190505b600a8310612305576001810190505b80915050919050565b600073ffffffffffffffffffffffffffffffffffffffff168273ffffffffffffffffffffffffffffffffffffffff16036123805760006040517f64a0ae9200000000000000000000000000000000000000000000000000000000815260040161237791906128c6565b60405180910390fd5b600061238e838360006118b2565b9050600073ffffffffffffffffffffffffffffffffffffffff168173ffffffffffffffffffffffffffffffffffffffff16146124025760006040517f73c6ac6e0000000000000000000000000000000000000000000000000000000081526004016123f991906128c6565b60405180910390fd5b505050565b60008073ffffffffffffffffffffffffffffffffffffffff168373ffffffffffffffffffffffffffffffffffffffff16141580156124bf57508273ffffffffffffffffffffffffffffffffffffffff168473ffffffffffffffffffffffffffffffffffffffff161480612480575061247f84846114b4565b5b806124be57508273ffffffffffffffffffffffffffffffffffffffff166124a68361172b565b73ffffffffffffffffffffffffffffffffffffffff16145b5b90509392505050565b6040518060c001604052806060815260200160008152602001600081526020016000815260200160008152602001600081525090565b6000604051905090565b600080fd5b600080fd5b60007fffffffff0000000000000000000000000000000000000000000000000000000082169050919050565b61254781612512565b811461255257600080fd5b50565b6000813590506125648161253e565b92915050565b6000602082840312156125805761257f612508565b5b600061258e84828501612555565b91505092915050565b60008115159050919050565b6125ac81612597565b82525050565b60006020820190506125c760008301846125a3565b92915050565b600073ffffffffffffffffffffffffffffffffffffffff82169050919050565b60006125f8826125cd565b9050919050565b612608816125ed565b811461261357600080fd5b50565b600081359050612625816125ff565b92915050565b60006020828403121561264157612640612508565b5b600061264f84828501612616565b91505092915050565b600081519050919050565b600082825260208201905092915050565b6000819050602082019050919050565b6000819050919050565b61269781612684565b82525050565b60006126a9838361268e565b60208301905092915050565b6000602082019050919050565b60006126cd82612658565b6126d78185612663565b93506126e283612674565b8060005b838110156127135781516126fa888261269d565b9750612705836126b5565b9250506001810190506126e6565b5085935050505092915050565b6000602082019050818103600083015261273a81846126c2565b905092915050565b600081519050919050565b600082825260208201905092915050565b60005b8381101561277c578082015181840152602081019050612761565b60008484015250505050565b6000601f19601f8301169050919050565b60006127a482612742565b6127ae818561274d565b93506127be81856020860161275e565b6127c781612788565b840191505092915050565b600060208201905081810360008301526127ec8184612799565b905092915050565b6127fd81612684565b811461280857600080fd5b50565b60008135905061281a816127f4565b92915050565b6000806040838503121561283757612836612508565b5b600061284585828601612616565b92505060206128568582860161280b565b9150509250929050565b61286981612684565b82525050565b60006020820190506128846000830184612860565b92915050565b6000602082840312156128a05761289f612508565b5b60006128ae8482850161280b565b91505092915050565b6128c0816125ed565b82525050565b60006020820190506128db60008301846128b7565b92915050565b600060c08201905081810360008301526128fb8189612799565b905061290a6020830188612860565b6129176040830187612860565b6129246060830186612860565b6129316080830185612860565b61293e60a0830184612860565b979650505050505050565b60008060006060848603121561296257612961612508565b5b600061297086828701612616565b935050602061298186828701612616565b92505060406129928682870161280b565b9150509250925092565b60006060820190506129b16000830186612860565b6129be60208301856128b7565b6129cb60408301846125a3565b949350505050565b6000819050919050565b60006129f86129f36129ee846125cd565b6129d3565b6125cd565b9050919050565b6000612a0a826129dd565b9050919050565b6000612a1c826129ff565b9050919050565b612a2c81612a11565b82525050565b6000602082019050612a476000830184612a23565b92915050565b612a5681612597565b8114612a6157600080fd5b50565b600081359050612a7381612a4d565b92915050565b60008060408385031215612a9057612a8f612508565b5b6000612a9e85828601612616565b9250506020612aaf85828601612a64565b9150509250929050565b600080fd5b600080fd5b7f4e487b7100000000000000000000000000000000000000000000000000000000600052604160045260246000fd5b612afb82612788565b810181811067ffffffffffffffff82111715612b1a57612b19612ac3565b5b80604052505050565b6000612b2d6124fe565b9050612b398282612af2565b919050565b600067ffffffffffffffff821115612b5957612b58612ac3565b5b612b6282612788565b9050602081019050919050565b82818337600083830152505050565b6000612b91612b8c84612b3e565b612b23565b905082815260208101848484011115612bad57612bac612abe565b5b612bb8848285612b6f565b509392505050565b600082601f830112612bd557612bd4612ab9565b5b8135612be5848260208601612b7e565b91505092915050565b60008060008060808587031215612c0857612c07612508565b5b6000612c1687828801612616565b9450506020612c2787828801612616565b9350506040612c388782880161280b565b925050606085013567ffffffffffffffff811115612c5957612c5861250d565b5b612c6587828801612bc0565b91505092959194509250565b600067ffffffffffffffff821115612c8c57612c8b612ac3565b5b612c9582612788565b9050602081019050919050565b6000612cb5612cb084612c71565b612b23565b905082815260208101848484011115612cd157612cd0612abe565b5b612cdc848285612b6f565b509392505050565b600082601f830112612cf957612cf8612ab9565b5b8135612d09848260208601612ca2565b91505092915050565b600080600080600060a08688031215612d2e57612d2d612508565b5b600086013567ffffffffffffffff811115612d4c57612d4b61250d565b5b612d5888828901612ce4565b9550506020612d698882890161280b565b9450506040612d7a8882890161280b565b9350506060612d8b8882890161280b565b9250506080612d9c8882890161280b565b9150509295509295909350565b60008060408385031215612dc057612dbf612508565b5b6000612dce85828601612616565b9250506020612ddf85828601612616565b9150509250929050565b600082825260208201905092915050565b6000612e0582612742565b612e0f8185612de9565b9350612e1f81856020860161275e565b612e2881612788565b840191505092915050565b600060c0830160008301518482036000860152612e508282612dfa565b9150506020830151612e65602086018261268e565b506040830151612e78604086018261268e565b506060830151612e8b606086018261268e565b506080830151612e9e608086018261268e565b5060a0830151612eb160a086018261268e565b508091505092915050565b60006020820190508181036000830152612ed68184612e33565b905092915050565b7f4e487b7100000000000000000000000000000000000000000000000000000000600052602260045260246000fd5b60006002820490506001821680612f2557607f821691505b602082108103612f3857612f37612ede565b5b50919050565b7f596f7520646f206e6f74206f776e2074686973207469636b6574000000000000600082015250565b6000612f74601a8361274d565b9150612f7f82612f3e565b602082019050919050565b60006020820190508181036000830152612fa381612f67565b9050919050565b7f5469636b657420616c72656164792063616e63656c6c65640000000000000000600082015250565b6000612fe060188361274d565b9150612feb82612faa565b602082019050919050565b6000602082019050818103600083015261300f81612fd3565b9050919050565b7f4e487b7100000000000000000000000000000000000000000000000000000000600052601260045260246000fd5b7f4e487b7100000000000000000000000000000000000000000000000000000000600052601160045260246000fd5b600061307f82612684565b915061308a83612684565b92508261309a57613099613016565b5b828204905092915050565b60006040820190506130ba60008301856128b7565b6130c76020830184612860565b9392505050565b6000815190506130dd81612a4d565b92915050565b6000602082840312156130f9576130f8612508565b5b6000613107848285016130ce565b91505092915050565b7f4576656e7420646f6573206e6f74206578697374000000000000000000000000600082015250565b600061314660148361274d565b915061315182613110565b602082019050919050565b6000602082019050818103600083015261317581613139565b9050919050565b7f536f6c64206f7574000000000000000000000000000000000000000000000000600082015250565b60006131b260088361274d565b91506131bd8261317c565b602082019050919050565b600060208201905081810360008301526131e1816131a5565b9050919050565b60006060820190506131fd60008301866128b7565b61320a60208301856128b7565b6132176040830184612860565b949350505050565b7f544958434f494e207472616e73666572206661696c6564000000000000000000600082015250565b600061325560178361274d565b91506132608261321f565b602082019050919050565b6000602082019050818103600083015261328481613248565b9050919050565b600061329682612684565b91507fffffffffffffffffffffffffffffffffffffffffffffffffffffffffffffffff82036132c8576132c7613045565b5b600182019050919050565b60006060820190506132e860008301866128b7565b6132f56020830185612860565b61330260408301846128b7565b949350505050565b7f4f6e6c79206f776e65722063616e20706572666f726d2074686973206163746960008201527f6f6e000000000000000000000000000000000000000000000000000000000000602082015250565b600061336660228361274d565b91506133718261330a565b604082019050919050565b6000602082019050818103600083015261339581613359565b9050919050565b6000815190506133ab816127f4565b92915050565b6000602082840312156133c7576133c6612508565b5b60006133d58482850161339c565b91505092915050565b7f4e6f2066756e647320746f207769746864726177000000000000000000000000600082015250565b600061341460148361274d565b915061341f826133de565b602082019050919050565b6000602082019050818103600083015261344381613407565b9050919050565b600081905092915050565b600061346082612742565b61346a818561344a565b935061347a81856020860161275e565b80840191505092915050565b60006134928285613455565b915061349e8284613455565b91508190509392505050565b60008190508160005260206000209050919050565b60006020601f8301049050919050565b600082821b905092915050565b60006008830261350c7fffffffffffffffffffffffffffffffffffffffffffffffffffffffffffffffff826134cf565b61351686836134cf565b95508019841693508086168417925050509392505050565b600061354961354461353f84612684565b6129d3565b612684565b9050919050565b6000819050919050565b6135638361352e565b61357761356f82613550565b8484546134dc565b825550505050565b600090565b61358c61357f565b61359781848461355a565b505050565b5b818110156135bb576135b0600082613584565b60018101905061359d565b5050565b601f821115613600576135d1816134aa565b6135da846134bf565b810160208510156135e9578190505b6135fd6135f5856134bf565b83018261359c565b50505b505050565b600082821c905092915050565b600061362360001984600802613605565b1980831691505092915050565b600061363c8383613612565b9150826002028217905092915050565b61365582612742565b67ffffffffffffffff81111561366e5761366d612ac3565b5b6136788254612f0d565b6136838282856135bf565b600060209050601f8311600181146136b657600084156136a4578287015190505b6136ae8582613630565b865550613716565b601f1984166136c4866134aa565b60005b828110156136ec578489015182556001820191506020850194506020810190506136c7565b868310156137095784890151613705601f891682613612565b8355505b6001600288020188555050505b505050505050565b60008151905061372d816125ff565b92915050565b60006020828403121561374957613748612508565b5b60006137578482850161371e565b91505092915050565b600081519050919050565b600082825260208201905092915050565b600061378782613760565b613791818561376b565b93506137a181856020860161275e565b6137aa81612788565b840191505092915050565b60006080820190506137ca60008301876128b7565b6137d760208301866128b7565b6137e46040830185612860565b81810360608301526137f6818461377c565b905095945050505050565b6000815190506138108161253e565b92915050565b60006020828403121561382c5761382b612508565b5b600061383a84828501613801565b9150509291505056fea2646970667358221220ae8df38ab3c142a7cf77dbf54158cc7df689e1ffa20fd116a4cc53162829373e64736f6c63430008140033",
  "linkReferences": {},
  "deployedLinkReferences": {}
}